{
  "_format": "hh-sol-artifact-1",
  "contractName": "CropInsuranceNFT",
  "sourceName": "contracts/CropInsuranceNFT.sol",
  "abi": [
    {
      "inputs": [],
      "stateMutability": "nonpayable",
      "type": "constructor"
    },
    {
      "inputs": [
        {
          "internalType": "address",
          "name": "sender",
          "type": "address"
        },
        {
          "internalType": "uint256",
          "name": "tokenId",
          "type": "uint256"
        },
        {
          "internalType": "address",
          "name": "owner",
          "type": "address"
        }
      ],
      "name": "ERC721IncorrectOwner",
      "type": "error"
    },
    {
      "inputs": [
        {
          "internalType": "address",
          "name": "operator",
          "type": "address"
        },
        {
          "internalType": "uint256",
          "name": "tokenId",
          "type": "uint256"
        }
      ],
      "name": "ERC721InsufficientApproval",
      "type": "error"
    },
    {
      "inputs": [
        {
          "internalType": "address",
          "name": "approver",
          "type": "address"
        }
      ],
      "name": "ERC721InvalidApprover",
      "type": "error"
    },
    {
      "inputs": [
        {
          "internalType": "address",
          "name": "operator",
          "type": "address"
        }
      ],
      "name": "ERC721InvalidOperator",
      "type": "error"
    },
    {
      "inputs": [
        {
          "internalType": "address",
          "name": "owner",
          "type": "address"
        }
      ],
      "name": "ERC721InvalidOwner",
      "type": "error"
    },
    {
      "inputs": [
        {
          "internalType": "address",
          "name": "receiver",
          "type": "address"
        }
      ],
      "name": "ERC721InvalidReceiver",
      "type": "error"
    },
    {
      "inputs": [
        {
          "internalType": "address",
          "name": "sender",
          "type": "address"
        }
      ],
      "name": "ERC721InvalidSender",
      "type": "error"
    },
    {
      "inputs": [
        {
          "internalType": "uint256",
          "name": "tokenId",
          "type": "uint256"
        }
      ],
      "name": "ERC721NonexistentToken",
      "type": "error"
    },
    {
      "inputs": [
        {
          "internalType": "address",
          "name": "owner",
          "type": "address"
        }
      ],
      "name": "OwnableInvalidOwner",
      "type": "error"
    },
    {
      "inputs": [
        {
          "internalType": "address",
          "name": "account",
          "type": "address"
        }
      ],
      "name": "OwnableUnauthorizedAccount",
      "type": "error"
    },
    {
      "anonymous": false,
      "inputs": [
        {
          "indexed": true,
          "internalType": "address",
          "name": "owner",
          "type": "address"
        },
        {
          "indexed": true,
          "internalType": "address",
          "name": "approved",
          "type": "address"
        },
        {
          "indexed": true,
          "internalType": "uint256",
          "name": "tokenId",
          "type": "uint256"
        }
      ],
      "name": "Approval",
      "type": "event"
    },
    {
      "anonymous": false,
      "inputs": [
        {
          "indexed": true,
          "internalType": "address",
          "name": "owner",
          "type": "address"
        },
        {
          "indexed": true,
          "internalType": "address",
          "name": "operator",
          "type": "address"
        },
        {
          "indexed": false,
          "internalType": "bool",
          "name": "approved",
          "type": "bool"
        }
      ],
      "name": "ApprovalForAll",
      "type": "event"
    },
    {
      "anonymous": false,
      "inputs": [
        {
          "indexed": true,
          "internalType": "address",
          "name": "previousOwner",
          "type": "address"
        },
        {
          "indexed": true,
          "internalType": "address",
          "name": "newOwner",
          "type": "address"
        }
      ],
      "name": "OwnershipTransferred",
      "type": "event"
    },
    {
      "anonymous": false,
      "inputs": [
        {
          "indexed": true,
          "internalType": "address",
          "name": "from",
          "type": "address"
        },
        {
          "indexed": true,
          "internalType": "address",
          "name": "to",
          "type": "address"
        },
        {
          "indexed": true,
          "internalType": "uint256",
          "name": "tokenId",
          "type": "uint256"
        }
      ],
      "name": "Transfer",
      "type": "event"
    },
    {
      "inputs": [
        {
          "internalType": "address",
          "name": "to",
          "type": "address"
        },
        {
          "internalType": "uint256",
          "name": "tokenId",
          "type": "uint256"
        }
      ],
      "name": "approve",
      "outputs": [],
      "stateMutability": "nonpayable",
      "type": "function"
    },
    {
      "inputs": [
        {
          "internalType": "address",
          "name": "owner",
          "type": "address"
        }
      ],
      "name": "balanceOf",
      "outputs": [
        {
          "internalType": "uint256",
          "name": "",
          "type": "uint256"
        }
      ],
      "stateMutability": "view",
      "type": "function"
    },
    {
      "inputs": [
        {
          "internalType": "uint256",
          "name": "tokenId",
          "type": "uint256"
        }
      ],
      "name": "claimPolicy",
      "outputs": [],
      "stateMutability": "nonpayable",
      "type": "function"
    },
    {
      "inputs": [
        {
          "internalType": "uint256",
          "name": "tokenId",
          "type": "uint256"
        }
      ],
      "name": "getApproved",
      "outputs": [
        {
          "internalType": "address",
          "name": "",
          "type": "address"
        }
      ],
      "stateMutability": "view",
      "type": "function"
    },
    {
      "inputs": [
        {
          "internalType": "uint256",
          "name": "tokenId",
          "type": "uint256"
        }
      ],
      "name": "getPolicyDetails",
      "outputs": [
        {
          "components": [
            {
              "internalType": "uint256",
              "name": "policyId",
              "type": "uint256"
            },
            {
              "internalType": "string",
              "name": "farmerId",
              "type": "string"
            },
            {
              "internalType": "string",
              "name": "cropType",
              "type": "string"
            },
            {
              "internalType": "uint128",
              "name": "coverageAmount",
              "type": "uint128"
            },
            {
              "internalType": "uint128",
              "name": "premium",
              "type": "uint128"
            },
            {
              "internalType": "uint128",
              "name": "expirationDate",
              "type": "uint128"
            },
            {
              "internalType": "bool",
              "name": "claimed",
              "type": "bool"
            }
          ],
          "internalType": "struct CropInsuranceNFT.Policy",
          "name": "",
          "type": "tuple"
        }
      ],
      "stateMutability": "view",
      "type": "function"
    },
    {
      "inputs": [
        {
          "internalType": "address",
          "name": "owner",
          "type": "address"
        },
        {
          "internalType": "address",
          "name": "operator",
          "type": "address"
        }
      ],
      "name": "isApprovedForAll",
      "outputs": [
        {
          "internalType": "bool",
          "name": "",
          "type": "bool"
        }
      ],
      "stateMutability": "view",
      "type": "function"
    },
    {
      "inputs": [
        {
          "internalType": "string",
          "name": "farmerId",
          "type": "string"
        },
        {
          "internalType": "string",
          "name": "cropType",
          "type": "string"
        },
        {
          "internalType": "uint128",
          "name": "coverageAmount",
          "type": "uint128"
        },
        {
          "internalType": "uint128",
          "name": "premium",
          "type": "uint128"
        },
        {
          "internalType": "uint128",
          "name": "expirationDate",
          "type": "uint128"
        }
      ],
      "name": "mintPolicyNFT",
      "outputs": [
        {
          "internalType": "uint256",
          "name": "",
          "type": "uint256"
        }
      ],
      "stateMutability": "nonpayable",
      "type": "function"
    },
    {
      "inputs": [],
      "name": "name",
      "outputs": [
        {
          "internalType": "string",
          "name": "",
          "type": "string"
        }
      ],
      "stateMutability": "view",
      "type": "function"
    },
    {
      "inputs": [],
      "name": "nextTokenId",
      "outputs": [
        {
          "internalType": "uint256",
          "name": "",
          "type": "uint256"
        }
      ],
      "stateMutability": "view",
      "type": "function"
    },
    {
      "inputs": [],
      "name": "owner",
      "outputs": [
        {
          "internalType": "address",
          "name": "",
          "type": "address"
        }
      ],
      "stateMutability": "view",
      "type": "function"
    },
    {
      "inputs": [
        {
          "internalType": "uint256",
          "name": "tokenId",
          "type": "uint256"
        }
      ],
      "name": "ownerOf",
      "outputs": [
        {
          "internalType": "address",
          "name": "",
          "type": "address"
        }
      ],
      "stateMutability": "view",
      "type": "function"
    },
    {
      "inputs": [
        {
          "internalType": "uint256",
          "name": "",
          "type": "uint256"
        }
      ],
      "name": "policies",
      "outputs": [
        {
          "internalType": "uint256",
          "name": "policyId",
          "type": "uint256"
        },
        {
          "internalType": "string",
          "name": "farmerId",
          "type": "string"
        },
        {
          "internalType": "string",
          "name": "cropType",
          "type": "string"
        },
        {
          "internalType": "uint128",
          "name": "coverageAmount",
          "type": "uint128"
        },
        {
          "internalType": "uint128",
          "name": "premium",
          "type": "uint128"
        },
        {
          "internalType": "uint128",
          "name": "expirationDate",
          "type": "uint128"
        },
        {
          "internalType": "bool",
          "name": "claimed",
          "type": "bool"
        }
      ],
      "stateMutability": "view",
      "type": "function"
    },
    {
      "inputs": [],
      "name": "renounceOwnership",
      "outputs": [],
      "stateMutability": "nonpayable",
      "type": "function"
    },
    {
      "inputs": [
        {
          "internalType": "address",
          "name": "from",
          "type": "address"
        },
        {
          "internalType": "address",
          "name": "to",
          "type": "address"
        },
        {
          "internalType": "uint256",
          "name": "tokenId",
          "type": "uint256"
        }
      ],
      "name": "safeTransferFrom",
      "outputs": [],
      "stateMutability": "nonpayable",
      "type": "function"
    },
    {
      "inputs": [
        {
          "internalType": "address",
          "name": "from",
          "type": "address"
        },
        {
          "internalType": "address",
          "name": "to",
          "type": "address"
        },
        {
          "internalType": "uint256",
          "name": "tokenId",
          "type": "uint256"
        },
        {
          "internalType": "bytes",
          "name": "data",
          "type": "bytes"
        }
      ],
      "name": "safeTransferFrom",
      "outputs": [],
      "stateMutability": "nonpayable",
      "type": "function"
    },
    {
      "inputs": [
        {
          "internalType": "address",
          "name": "operator",
          "type": "address"
        },
        {
          "internalType": "bool",
          "name": "approved",
          "type": "bool"
        }
      ],
      "name": "setApprovalForAll",
      "outputs": [],
      "stateMutability": "nonpayable",
      "type": "function"
    },
    {
      "inputs": [
        {
          "internalType": "bytes4",
          "name": "interfaceId",
          "type": "bytes4"
        }
      ],
      "name": "supportsInterface",
      "outputs": [
        {
          "internalType": "bool",
          "name": "",
          "type": "bool"
        }
      ],
      "stateMutability": "view",
      "type": "function"
    },
    {
      "inputs": [],
      "name": "symbol",
      "outputs": [
        {
          "internalType": "string",
          "name": "",
          "type": "string"
        }
      ],
      "stateMutability": "view",
      "type": "function"
    },
    {
      "inputs": [
        {
          "internalType": "uint256",
          "name": "tokenId",
          "type": "uint256"
        }
      ],
      "name": "tokenURI",
      "outputs": [
        {
          "internalType": "string",
          "name": "",
          "type": "string"
        }
      ],
      "stateMutability": "view",
      "type": "function"
    },
    {
      "inputs": [
        {
          "internalType": "address",
          "name": "from",
          "type": "address"
        },
        {
          "internalType": "address",
          "name": "to",
          "type": "address"
        },
        {
          "internalType": "uint256",
          "name": "tokenId",
          "type": "uint256"
        }
      ],
      "name": "transferFrom",
      "outputs": [],
      "stateMutability": "nonpayable",
      "type": "function"
    },
    {
      "inputs": [
        {
          "internalType": "address",
          "name": "newOwner",
          "type": "address"
        }
      ],
      "name": "transferOwnership",
      "outputs": [],
      "stateMutability": "nonpayable",
      "type": "function"
    }
  ],
  "bytecode": "0x6080604052600160075534801561001557600080fd5b50336040518060400160405280601081526020017f43726f70496e737572616e63654e4654000000000000000000000000000000008152506040518060400160405280600481526020017f43524f500000000000000000000000000000000000000000000000000000000081525081600090816100929190610442565b5080600190816100a29190610442565b505050600073ffffffffffffffffffffffffffffffffffffffff168173ffffffffffffffffffffffffffffffffffffffff16036101175760006040517f1e4fbdf700000000000000000000000000000000000000000000000000000000815260040161010e9190610555565b60405180910390fd5b6101268161012c60201b60201c565b50610570565b6000600660009054906101000a900473ffffffffffffffffffffffffffffffffffffffff16905081600660006101000a81548173ffffffffffffffffffffffffffffffffffffffff021916908373ffffffffffffffffffffffffffffffffffffffff1602179055508173ffffffffffffffffffffffffffffffffffffffff168173ffffffffffffffffffffffffffffffffffffffff167f8be0079c531659141344cd1fd0a4f28419497f9722a3daafe3b4186f6b6457e060405160405180910390a35050565b600081519050919050565b7f4e487b7100000000000000000000000000000000000000000000000000000000600052604160045260246000fd5b7f4e487b7100000000000000000000000000000000000000000000000000000000600052602260045260246000fd5b6000600282049050600182168061027357607f821691505b6020821081036102865761028561022c565b5b50919050565b60008190508160005260206000209050919050565b60006020601f8301049050919050565b600082821b905092915050565b6000600883026102ee7fffffffffffffffffffffffffffffffffffffffffffffffffffffffffffffffff826102b1565b6102f886836102b1565b95508019841693508086168417925050509392505050565b6000819050919050565b6000819050919050565b600061033f61033a61033584610310565b61031a565b610310565b9050919050565b6000819050919050565b61035983610324565b61036d61036582610346565b8484546102be565b825550505050565b600090565b610382610375565b61038d818484610350565b505050565b5b818110156103b1576103a660008261037a565b600181019050610393565b5050565b601f8211156103f6576103c78161028c565b6103d0846102a1565b810160208510156103df578190505b6103f36103eb856102a1565b830182610392565b50505b505050565b600082821c905092915050565b6000610419600019846008026103fb565b1980831691505092915050565b60006104328383610408565b9150826002028217905092915050565b61044b826101f2565b67ffffffffffffffff811115610464576104636101fd565b5b61046e825461025b565b6104798282856103b5565b600060209050601f8311600181146104ac576000841561049a578287015190505b6104a48582610426565b86555061050c565b601f1984166104ba8661028c565b60005b828110156104e2578489015182556001820191506020850194506020810190506104bd565b868310156104ff57848901516104fb601f891682610408565b8355505b6001600288020188555050505b505050505050565b600073ffffffffffffffffffffffffffffffffffffffff82169050919050565b600061053f82610514565b9050919050565b61054f81610534565b82525050565b600060208201905061056a6000830184610546565b92915050565b6130098061057f6000396000f3fe608060405234801561001057600080fd5b50600436106101375760003560e01c8063715018a6116100b8578063b88d4fde1161007c578063b88d4fde1461033a578063c87b56dd14610356578063cc03801014610386578063d3e89483146103b6578063e985e9c5146103ec578063f2fde38b1461041c57610137565b8063715018a6146102ba57806375794a3c146102c45780638da5cb5b146102e257806395d89b4114610300578063a22cb4651461031e57610137565b80632aea118d116100ff5780632aea118d146101f257806342842e0e1461020e5780636352211e1461022a5780636aaee9341461025a57806370a082311461028a57610137565b806301ffc9a71461013c57806306fdde031461016c578063081812fc1461018a578063095ea7b3146101ba57806323b872dd146101d6575b600080fd5b61015660048036038101906101519190612122565b610438565b604051610163919061216a565b60405180910390f35b61017461051a565b6040516101819190612215565b60405180910390f35b6101a4600480360381019061019f919061226d565b6105ac565b6040516101b191906122db565b60405180910390f35b6101d460048036038101906101cf9190612322565b6105c8565b005b6101f060048036038101906101eb9190612362565b6105de565b005b61020c6004803603810190610207919061226d565b6106e0565b005b61022860048036038101906102239190612362565b61081e565b005b610244600480360381019061023f919061226d565b61083e565b60405161025191906122db565b60405180910390f35b610274600480360381019061026f9190612532565b610850565b60405161028191906125f4565b60405180910390f35b6102a4600480360381019061029f919061260f565b610a22565b6040516102b191906125f4565b60405180910390f35b6102c2610adc565b005b6102cc610af0565b6040516102d991906125f4565b60405180910390f35b6102ea610af6565b6040516102f791906122db565b60405180910390f35b610308610b20565b6040516103159190612215565b60405180910390f35b61033860048036038101906103339190612668565b610bb2565b005b610354600480360381019061034f9190612749565b610bc8565b005b610370600480360381019061036b919061226d565b610bed565b60405161037d9190612215565b60405180910390f35b6103a0600480360381019061039b919061226d565b610c56565b6040516103ad91906128e6565b60405180910390f35b6103d060048036038101906103cb919061226d565b610eaa565b6040516103e39796959493929190612917565b60405180910390f35b61040660048036038101906104019190612994565b61105d565b604051610413919061216a565b60405180910390f35b6104366004803603810190610431919061260f565b6110f1565b005b60007f80ac58cd000000000000000000000000000000000000000000000000000000007bffffffffffffffffffffffffffffffffffffffffffffffffffffffff1916827bffffffffffffffffffffffffffffffffffffffffffffffffffffffff1916148061050357507f5b5e139f000000000000000000000000000000000000000000000000000000007bffffffffffffffffffffffffffffffffffffffffffffffffffffffff1916827bffffffffffffffffffffffffffffffffffffffffffffffffffffffff1916145b80610513575061051282611177565b5b9050919050565b60606000805461052990612a03565b80601f016020809104026020016040519081016040528092919081815260200182805461055590612a03565b80156105a25780601f10610577576101008083540402835291602001916105a2565b820191906000526020600020905b81548152906001019060200180831161058557829003601f168201915b5050505050905090565b60006105b7826111e1565b506105c182611269565b9050919050565b6105da82826105d56112a6565b6112ae565b5050565b600073ffffffffffffffffffffffffffffffffffffffff168273ffffffffffffffffffffffffffffffffffffffff16036106505760006040517f64a0ae9200000000000000000000000000000000000000000000000000000000815260040161064791906122db565b60405180910390fd5b6000610664838361065f6112a6565b6112c0565b90508373ffffffffffffffffffffffffffffffffffffffff168173ffffffffffffffffffffffffffffffffffffffff16146106da578382826040517f64283d7b0000000000000000000000000000000000000000000000000000000081526004016106d193929190612a34565b60405180910390fd5b50505050565b3373ffffffffffffffffffffffffffffffffffffffff166107008261083e565b73ffffffffffffffffffffffffffffffffffffffff1614610756576040517f08c379a000000000000000000000000000000000000000000000000000000000815260040161074d90612ab7565b60405180910390fd5b60006008600083815260200190815260200160002090508060040160109054906101000a900460ff161580156107be57508060040160009054906101000a90046fffffffffffffffffffffffffffffffff166fffffffffffffffffffffffffffffffff164211155b6107fd576040517f08c379a00000000000000000000000000000000000000000000000000000000081526004016107f490612b23565b60405180910390fd5b60018160040160106101000a81548160ff0219169083151502179055505050565b61083983838360405180602001604052806000815250610bc8565b505050565b6000610849826111e1565b9050919050565b600080600754905061086233826114da565b60006040518060e00160405280838152602001898152602001888152602001876fffffffffffffffffffffffffffffffff168152602001866fffffffffffffffffffffffffffffffff168152602001856fffffffffffffffffffffffffffffffff16815260200160001515815250905080600860008481526020019081526020016000206000820151816000015560208201518160010190816109059190612cef565b50604082015181600201908161091b9190612cef565b5060608201518160030160006101000a8154816fffffffffffffffffffffffffffffffff02191690836fffffffffffffffffffffffffffffffff16021790555060808201518160030160106101000a8154816fffffffffffffffffffffffffffffffff02191690836fffffffffffffffffffffffffffffffff16021790555060a08201518160040160006101000a8154816fffffffffffffffffffffffffffffffff02191690836fffffffffffffffffffffffffffffffff16021790555060c08201518160040160106101000a81548160ff02191690831515021790555090505060076000815480929190610a0f90612df0565b9190505550819250505095945050505050565b60008073ffffffffffffffffffffffffffffffffffffffff168273ffffffffffffffffffffffffffffffffffffffff1603610a955760006040517f89c62b64000000000000000000000000000000000000000000000000000000008152600401610a8c91906122db565b60405180910390fd5b600360008373ffffffffffffffffffffffffffffffffffffffff1673ffffffffffffffffffffffffffffffffffffffff168152602001908152602001600020549050919050565b610ae46114f8565b610aee600061157f565b565b60075481565b6000600660009054906101000a900473ffffffffffffffffffffffffffffffffffffffff16905090565b606060018054610b2f90612a03565b80601f0160208091040260200160405190810160405280929190818152602001828054610b5b90612a03565b8015610ba85780601f10610b7d57610100808354040283529160200191610ba8565b820191906000526020600020905b815481529060010190602001808311610b8b57829003601f168201915b5050505050905090565b610bc4610bbd6112a6565b8383611645565b5050565b610bd38484846105de565b610be7610bde6112a6565b858585856117b4565b50505050565b6060610bf8826111e1565b506000610c03611965565b90506000815111610c235760405180602001604052806000815250610c4e565b80610c2d8461197c565b604051602001610c3e929190612e74565b6040516020818303038152906040525b915050919050565b610c5e612041565b600860008381526020019081526020016000206040518060e001604052908160008201548152602001600182018054610c9690612a03565b80601f0160208091040260200160405190810160405280929190818152602001828054610cc290612a03565b8015610d0f5780601f10610ce457610100808354040283529160200191610d0f565b820191906000526020600020905b815481529060010190602001808311610cf257829003601f168201915b50505050508152602001600282018054610d2890612a03565b80601f0160208091040260200160405190810160405280929190818152602001828054610d5490612a03565b8015610da15780601f10610d7657610100808354040283529160200191610da1565b820191906000526020600020905b815481529060010190602001808311610d8457829003601f168201915b505050505081526020016003820160009054906101000a90046fffffffffffffffffffffffffffffffff166fffffffffffffffffffffffffffffffff166fffffffffffffffffffffffffffffffff1681526020016003820160109054906101000a90046fffffffffffffffffffffffffffffffff166fffffffffffffffffffffffffffffffff166fffffffffffffffffffffffffffffffff1681526020016004820160009054906101000a90046fffffffffffffffffffffffffffffffff166fffffffffffffffffffffffffffffffff166fffffffffffffffffffffffffffffffff1681526020016004820160109054906101000a900460ff1615151515815250509050919050565b6008602052806000526040600020600091509050806000015490806001018054610ed390612a03565b80601f0160208091040260200160405190810160405280929190818152602001828054610eff90612a03565b8015610f4c5780601f10610f2157610100808354040283529160200191610f4c565b820191906000526020600020905b815481529060010190602001808311610f2f57829003601f168201915b505050505090806002018054610f6190612a03565b80601f0160208091040260200160405190810160405280929190818152602001828054610f8d90612a03565b8015610fda5780601f10610faf57610100808354040283529160200191610fda565b820191906000526020600020905b815481529060010190602001808311610fbd57829003601f168201915b5050505050908060030160009054906101000a90046fffffffffffffffffffffffffffffffff16908060030160109054906101000a90046fffffffffffffffffffffffffffffffff16908060040160009054906101000a90046fffffffffffffffffffffffffffffffff16908060040160109054906101000a900460ff16905087565b6000600560008473ffffffffffffffffffffffffffffffffffffffff1673ffffffffffffffffffffffffffffffffffffffff16815260200190815260200160002060008373ffffffffffffffffffffffffffffffffffffffff1673ffffffffffffffffffffffffffffffffffffffff16815260200190815260200160002060009054906101000a900460ff16905092915050565b6110f96114f8565b600073ffffffffffffffffffffffffffffffffffffffff168173ffffffffffffffffffffffffffffffffffffffff160361116b5760006040517f1e4fbdf700000000000000000000000000000000000000000000000000000000815260040161116291906122db565b60405180910390fd5b6111748161157f565b50565b60007f01ffc9a7000000000000000000000000000000000000000000000000000000007bffffffffffffffffffffffffffffffffffffffffffffffffffffffff1916827bffffffffffffffffffffffffffffffffffffffffffffffffffffffff1916149050919050565b6000806111ed83611a4a565b9050600073ffffffffffffffffffffffffffffffffffffffff168173ffffffffffffffffffffffffffffffffffffffff160361126057826040517f7e27328900000000000000000000000000000000000000000000000000000000815260040161125791906125f4565b60405180910390fd5b80915050919050565b60006004600083815260200190815260200160002060009054906101000a900473ffffffffffffffffffffffffffffffffffffffff169050919050565b600033905090565b6112bb8383836001611a87565b505050565b6000806112cc84611a4a565b9050600073ffffffffffffffffffffffffffffffffffffffff168373ffffffffffffffffffffffffffffffffffffffff161461130e5761130d818486611c4c565b5b600073ffffffffffffffffffffffffffffffffffffffff168173ffffffffffffffffffffffffffffffffffffffff161461139f57611350600085600080611a87565b6001600360008373ffffffffffffffffffffffffffffffffffffffff1673ffffffffffffffffffffffffffffffffffffffff168152602001908152602001600020600082825403925050819055505b600073ffffffffffffffffffffffffffffffffffffffff168573ffffffffffffffffffffffffffffffffffffffff1614611422576001600360008773ffffffffffffffffffffffffffffffffffffffff1673ffffffffffffffffffffffffffffffffffffffff168152602001908152602001600020600082825401925050819055505b846002600086815260200190815260200160002060006101000a81548173ffffffffffffffffffffffffffffffffffffffff021916908373ffffffffffffffffffffffffffffffffffffffff160217905550838573ffffffffffffffffffffffffffffffffffffffff168273ffffffffffffffffffffffffffffffffffffffff167fddf252ad1be2c89b69c2b068fc378daa952ba7f163c4a11628f55a4df523b3ef60405160405180910390a4809150509392505050565b6114f4828260405180602001604052806000815250611d10565b5050565b6115006112a6565b73ffffffffffffffffffffffffffffffffffffffff1661151e610af6565b73ffffffffffffffffffffffffffffffffffffffff161461157d576115416112a6565b6040517f118cdaa700000000000000000000000000000000000000000000000000000000815260040161157491906122db565b60405180910390fd5b565b6000600660009054906101000a900473ffffffffffffffffffffffffffffffffffffffff16905081600660006101000a81548173ffffffffffffffffffffffffffffffffffffffff021916908373ffffffffffffffffffffffffffffffffffffffff1602179055508173ffffffffffffffffffffffffffffffffffffffff168173ffffffffffffffffffffffffffffffffffffffff167f8be0079c531659141344cd1fd0a4f28419497f9722a3daafe3b4186f6b6457e060405160405180910390a35050565b600073ffffffffffffffffffffffffffffffffffffffff168273ffffffffffffffffffffffffffffffffffffffff16036116b657816040517f5b08ba180000000000000000000000000000000000000000000000000000000081526004016116ad91906122db565b60405180910390fd5b80600560008573ffffffffffffffffffffffffffffffffffffffff1673ffffffffffffffffffffffffffffffffffffffff16815260200190815260200160002060008473ffffffffffffffffffffffffffffffffffffffff1673ffffffffffffffffffffffffffffffffffffffff16815260200190815260200160002060006101000a81548160ff0219169083151502179055508173ffffffffffffffffffffffffffffffffffffffff168373ffffffffffffffffffffffffffffffffffffffff167f17307eab39ab6107e8899845ad3d59bd9653f200f220920489ca2b5937696c31836040516117a7919061216a565b60405180910390a3505050565b60008373ffffffffffffffffffffffffffffffffffffffff163b111561195e578273ffffffffffffffffffffffffffffffffffffffff1663150b7a02868685856040518563ffffffff1660e01b81526004016118139493929190612eed565b6020604051808303816000875af192505050801561184f57506040513d601f19601f8201168201806040525081019061184c9190612f4e565b60015b6118d3573d806000811461187f576040519150601f19603f3d011682016040523d82523d6000602084013e611884565b606091505b5060008151036118cb57836040517f64a0ae920000000000000000000000000000000000000000000000000000000081526004016118c291906122db565b60405180910390fd5b805160208201fd5b63150b7a0260e01b7bffffffffffffffffffffffffffffffffffffffffffffffffffffffff1916817bffffffffffffffffffffffffffffffffffffffffffffffffffffffff19161461195c57836040517f64a0ae9200000000000000000000000000000000000000000000000000000000815260040161195391906122db565b60405180910390fd5b505b5050505050565b606060405180602001604052806000815250905090565b60606000600161198b84611d34565b01905060008167ffffffffffffffff8111156119aa576119a96123bf565b5b6040519080825280601f01601f1916602001820160405280156119dc5781602001600182028036833780820191505090505b509050600082602083010190505b600115611a3f578080600190039150507f3031323334353637383961626364656600000000000000000000000000000000600a86061a8153600a8581611a3357611a32612f7b565b5b049450600085036119ea575b819350505050919050565b60006002600083815260200190815260200160002060009054906101000a900473ffffffffffffffffffffffffffffffffffffffff169050919050565b8080611ac05750600073ffffffffffffffffffffffffffffffffffffffff168273ffffffffffffffffffffffffffffffffffffffff1614155b15611bf4576000611ad0846111e1565b9050600073ffffffffffffffffffffffffffffffffffffffff168373ffffffffffffffffffffffffffffffffffffffff1614158015611b3b57508273ffffffffffffffffffffffffffffffffffffffff168173ffffffffffffffffffffffffffffffffffffffff1614155b8015611b4e5750611b4c818461105d565b155b15611b9057826040517fa9fbf51f000000000000000000000000000000000000000000000000000000008152600401611b8791906122db565b60405180910390fd5b8115611bf257838573ffffffffffffffffffffffffffffffffffffffff168273ffffffffffffffffffffffffffffffffffffffff167f8c5be1e5ebec7d5bd14f71427d1e84f3dd0314c0f7b2291e5b200ac8c7c3b92560405160405180910390a45b505b836004600085815260200190815260200160002060006101000a81548173ffffffffffffffffffffffffffffffffffffffff021916908373ffffffffffffffffffffffffffffffffffffffff16021790555050505050565b611c57838383611e87565b611d0b57600073ffffffffffffffffffffffffffffffffffffffff168373ffffffffffffffffffffffffffffffffffffffff1603611ccc57806040517f7e273289000000000000000000000000000000000000000000000000000000008152600401611cc391906125f4565b60405180910390fd5b81816040517f177e802f000000000000000000000000000000000000000000000000000000008152600401611d02929190612faa565b60405180910390fd5b505050565b611d1a8383611f48565b611d2f611d256112a6565b60008585856117b4565b505050565b600080600090507a184f03e93ff9f4daa797ed6e38ed64bf6a1f0100000000000000008310611d92577a184f03e93ff9f4daa797ed6e38ed64bf6a1f0100000000000000008381611d8857611d87612f7b565b5b0492506040810190505b6d04ee2d6d415b85acef81000000008310611dcf576d04ee2d6d415b85acef81000000008381611dc557611dc4612f7b565b5b0492506020810190505b662386f26fc100008310611dfe57662386f26fc100008381611df457611df3612f7b565b5b0492506010810190505b6305f5e1008310611e27576305f5e1008381611e1d57611e1c612f7b565b5b0492506008810190505b6127108310611e4c576127108381611e4257611e41612f7b565b5b0492506004810190505b60648310611e6f5760648381611e6557611e64612f7b565b5b0492506002810190505b600a8310611e7e576001810190505b80915050919050565b60008073ffffffffffffffffffffffffffffffffffffffff168373ffffffffffffffffffffffffffffffffffffffff1614158015611f3f57508273ffffffffffffffffffffffffffffffffffffffff168473ffffffffffffffffffffffffffffffffffffffff161480611f005750611eff848461105d565b5b80611f3e57508273ffffffffffffffffffffffffffffffffffffffff16611f2683611269565b73ffffffffffffffffffffffffffffffffffffffff16145b5b90509392505050565b600073ffffffffffffffffffffffffffffffffffffffff168273ffffffffffffffffffffffffffffffffffffffff1603611fba5760006040517f64a0ae92000000000000000000000000000000000000000000000000000000008152600401611fb191906122db565b60405180910390fd5b6000611fc8838360006112c0565b9050600073ffffffffffffffffffffffffffffffffffffffff168173ffffffffffffffffffffffffffffffffffffffff161461203c5760006040517f73c6ac6e00000000000000000000000000000000000000000000000000000000815260040161203391906122db565b60405180910390fd5b505050565b6040518060e0016040528060008152602001606081526020016060815260200160006fffffffffffffffffffffffffffffffff16815260200160006fffffffffffffffffffffffffffffffff16815260200160006fffffffffffffffffffffffffffffffff1681526020016000151581525090565b6000604051905090565b600080fd5b600080fd5b60007fffffffff0000000000000000000000000000000000000000000000000000000082169050919050565b6120ff816120ca565b811461210a57600080fd5b50565b60008135905061211c816120f6565b92915050565b600060208284031215612138576121376120c0565b5b60006121468482850161210d565b91505092915050565b60008115159050919050565b6121648161214f565b82525050565b600060208201905061217f600083018461215b565b92915050565b600081519050919050565b600082825260208201905092915050565b60005b838110156121bf5780820151818401526020810190506121a4565b60008484015250505050565b6000601f19601f8301169050919050565b60006121e782612185565b6121f18185612190565b93506122018185602086016121a1565b61220a816121cb565b840191505092915050565b6000602082019050818103600083015261222f81846121dc565b905092915050565b6000819050919050565b61224a81612237565b811461225557600080fd5b50565b60008135905061226781612241565b92915050565b600060208284031215612283576122826120c0565b5b600061229184828501612258565b91505092915050565b600073ffffffffffffffffffffffffffffffffffffffff82169050919050565b60006122c58261229a565b9050919050565b6122d5816122ba565b82525050565b60006020820190506122f060008301846122cc565b92915050565b6122ff816122ba565b811461230a57600080fd5b50565b60008135905061231c816122f6565b92915050565b60008060408385031215612339576123386120c0565b5b60006123478582860161230d565b925050602061235885828601612258565b9150509250929050565b60008060006060848603121561237b5761237a6120c0565b5b60006123898682870161230d565b935050602061239a8682870161230d565b92505060406123ab86828701612258565b9150509250925092565b600080fd5b600080fd5b7f4e487b7100000000000000000000000000000000000000000000000000000000600052604160045260246000fd5b6123f7826121cb565b810181811067ffffffffffffffff82111715612416576124156123bf565b5b80604052505050565b60006124296120b6565b905061243582826123ee565b919050565b600067ffffffffffffffff821115612455576124546123bf565b5b61245e826121cb565b9050602081019050919050565b82818337600083830152505050565b600061248d6124888461243a565b61241f565b9050828152602081018484840111156124a9576124a86123ba565b5b6124b484828561246b565b509392505050565b600082601f8301126124d1576124d06123b5565b5b81356124e184826020860161247a565b91505092915050565b60006fffffffffffffffffffffffffffffffff82169050919050565b61250f816124ea565b811461251a57600080fd5b50565b60008135905061252c81612506565b92915050565b600080600080600060a0868803121561254e5761254d6120c0565b5b600086013567ffffffffffffffff81111561256c5761256b6120c5565b5b612578888289016124bc565b955050602086013567ffffffffffffffff811115612599576125986120c5565b5b6125a5888289016124bc565b94505060406125b68882890161251d565b93505060606125c78882890161251d565b92505060806125d88882890161251d565b9150509295509295909350565b6125ee81612237565b82525050565b600060208201905061260960008301846125e5565b92915050565b600060208284031215612625576126246120c0565b5b60006126338482850161230d565b91505092915050565b6126458161214f565b811461265057600080fd5b50565b6000813590506126628161263c565b92915050565b6000806040838503121561267f5761267e6120c0565b5b600061268d8582860161230d565b925050602061269e85828601612653565b9150509250929050565b600067ffffffffffffffff8211156126c3576126c26123bf565b5b6126cc826121cb565b9050602081019050919050565b60006126ec6126e7846126a8565b61241f565b905082815260208101848484011115612708576127076123ba565b5b61271384828561246b565b509392505050565b600082601f8301126127305761272f6123b5565b5b81356127408482602086016126d9565b91505092915050565b60008060008060808587031215612763576127626120c0565b5b60006127718782880161230d565b94505060206127828782880161230d565b935050604061279387828801612258565b925050606085013567ffffffffffffffff8111156127b4576127b36120c5565b5b6127c08782880161271b565b91505092959194509250565b6127d581612237565b82525050565b600082825260208201905092915050565b60006127f782612185565b61280181856127db565b93506128118185602086016121a1565b61281a816121cb565b840191505092915050565b61282e816124ea565b82525050565b61283d8161214f565b82525050565b600060e08301600083015161285b60008601826127cc565b506020830151848203602086015261287382826127ec565b9150506040830151848203604086015261288d82826127ec565b91505060608301516128a26060860182612825565b5060808301516128b56080860182612825565b5060a08301516128c860a0860182612825565b5060c08301516128db60c0860182612834565b508091505092915050565b600060208201905081810360008301526129008184612843565b905092915050565b612911816124ea565b82525050565b600060e08201905061292c600083018a6125e5565b818103602083015261293e81896121dc565b9050818103604083015261295281886121dc565b90506129616060830187612908565b61296e6080830186612908565b61297b60a0830185612908565b61298860c083018461215b565b98975050505050505050565b600080604083850312156129ab576129aa6120c0565b5b60006129b98582860161230d565b92505060206129ca8582860161230d565b9150509250929050565b7f4e487b7100000000000000000000000000000000000000000000000000000000600052602260045260246000fd5b60006002820490506001821680612a1b57607f821691505b602082108103612a2e57612a2d6129d4565b5b50919050565b6000606082019050612a4960008301866122cc565b612a5660208301856125e5565b612a6360408301846122cc565b949350505050565b7f4e6f7420706f6c696379206f776e657200000000000000000000000000000000600082015250565b6000612aa1601083612190565b9150612aac82612a6b565b602082019050919050565b60006020820190508181036000830152612ad081612a94565b9050919050565b7f416c726561647920636c61696d6564206f722065787069726564000000000000600082015250565b6000612b0d601a83612190565b9150612b1882612ad7565b602082019050919050565b60006020820190508181036000830152612b3c81612b00565b9050919050565b60008190508160005260206000209050919050565b60006020601f8301049050919050565b600082821b905092915050565b600060088302612ba57fffffffffffffffffffffffffffffffffffffffffffffffffffffffffffffffff82612b68565b612baf8683612b68565b95508019841693508086168417925050509392505050565b6000819050919050565b6000612bec612be7612be284612237565b612bc7565b612237565b9050919050565b6000819050919050565b612c0683612bd1565b612c1a612c1282612bf3565b848454612b75565b825550505050565b600090565b612c2f612c22565b612c3a818484612bfd565b505050565b5b81811015612c5e57612c53600082612c27565b600181019050612c40565b5050565b601f821115612ca357612c7481612b43565b612c7d84612b58565b81016020851015612c8c578190505b612ca0612c9885612b58565b830182612c3f565b50505b505050565b600082821c905092915050565b6000612cc660001984600802612ca8565b1980831691505092915050565b6000612cdf8383612cb5565b9150826002028217905092915050565b612cf882612185565b67ffffffffffffffff811115612d1157612d106123bf565b5b612d1b8254612a03565b612d26828285612c62565b600060209050601f831160018114612d595760008415612d47578287015190505b612d518582612cd3565b865550612db9565b601f198416612d6786612b43565b60005b82811015612d8f57848901518255600182019150602085019450602081019050612d6a565b86831015612dac5784890151612da8601f891682612cb5565b8355505b6001600288020188555050505b505050505050565b7f4e487b7100000000000000000000000000000000000000000000000000000000600052601160045260246000fd5b6000612dfb82612237565b91507fffffffffffffffffffffffffffffffffffffffffffffffffffffffffffffffff8203612e2d57612e2c612dc1565b5b600182019050919050565b600081905092915050565b6000612e4e82612185565b612e588185612e38565b9350612e688185602086016121a1565b80840191505092915050565b6000612e808285612e43565b9150612e8c8284612e43565b91508190509392505050565b600081519050919050565b600082825260208201905092915050565b6000612ebf82612e98565b612ec98185612ea3565b9350612ed98185602086016121a1565b612ee2816121cb565b840191505092915050565b6000608082019050612f0260008301876122cc565b612f0f60208301866122cc565b612f1c60408301856125e5565b8181036060830152612f2e8184612eb4565b905095945050505050565b600081519050612f48816120f6565b92915050565b600060208284031215612f6457612f636120c0565b5b6000612f7284828501612f39565b91505092915050565b7f4e487b7100000000000000000000000000000000000000000000000000000000600052601260045260246000fd5b6000604082019050612fbf60008301856122cc565b612fcc60208301846125e5565b939250505056fea2646970667358221220bd9a917a8aa4049b410f33b8c3d52b5618b9135f7a26186e809ebc5bde8da9bc64736f6c634300081c0033",
  "linkReferences": {},
  "deployedLinkReferences": {}
}