{
  "_format": "hh-sol-artifact-1",
  "contractName": "CropInsuranceNFT",
  "sourceName": "contracts/CropInsuranceNFT.sol",
  "abi": [
    {
      "inputs": [],
      "stateMutability": "nonpayable",
      "type": "constructor"
    },
    {
      "inputs": [
        {
          "internalType": "address",
          "name": "sender",
          "type": "address"
        },
        {
          "internalType": "uint256",
          "name": "tokenId",
          "type": "uint256"
        },
        {
          "internalType": "address",
          "name": "owner",
          "type": "address"
        }
      ],
      "name": "ERC721IncorrectOwner",
      "type": "error"
    },
    {
      "inputs": [
        {
          "internalType": "address",
          "name": "operator",
          "type": "address"
        },
        {
          "internalType": "uint256",
          "name": "tokenId",
          "type": "uint256"
        }
      ],
      "name": "ERC721InsufficientApproval",
      "type": "error"
    },
    {
      "inputs": [
        {
          "internalType": "address",
          "name": "approver",
          "type": "address"
        }
      ],
      "name": "ERC721InvalidApprover",
      "type": "error"
    },
    {
      "inputs": [
        {
          "internalType": "address",
          "name": "operator",
          "type": "address"
        }
      ],
      "name": "ERC721InvalidOperator",
      "type": "error"
    },
    {
      "inputs": [
        {
          "internalType": "address",
          "name": "owner",
          "type": "address"
        }
      ],
      "name": "ERC721InvalidOwner",
      "type": "error"
    },
    {
      "inputs": [
        {
          "internalType": "address",
          "name": "receiver",
          "type": "address"
        }
      ],
      "name": "ERC721InvalidReceiver",
      "type": "error"
    },
    {
      "inputs": [
        {
          "internalType": "address",
          "name": "sender",
          "type": "address"
        }
      ],
      "name": "ERC721InvalidSender",
      "type": "error"
    },
    {
      "inputs": [
        {
          "internalType": "uint256",
          "name": "tokenId",
          "type": "uint256"
        }
      ],
      "name": "ERC721NonexistentToken",
      "type": "error"
    },
    {
      "inputs": [
        {
          "internalType": "address",
          "name": "owner",
          "type": "address"
        }
      ],
      "name": "OwnableInvalidOwner",
      "type": "error"
    },
    {
      "inputs": [
        {
          "internalType": "address",
          "name": "account",
          "type": "address"
        }
      ],
      "name": "OwnableUnauthorizedAccount",
      "type": "error"
    },
    {
      "anonymous": false,
      "inputs": [
        {
          "indexed": true,
          "internalType": "address",
          "name": "owner",
          "type": "address"
        },
        {
          "indexed": true,
          "internalType": "address",
          "name": "approved",
          "type": "address"
        },
        {
          "indexed": true,
          "internalType": "uint256",
          "name": "tokenId",
          "type": "uint256"
        }
      ],
      "name": "Approval",
      "type": "event"
    },
    {
      "anonymous": false,
      "inputs": [
        {
          "indexed": true,
          "internalType": "address",
          "name": "owner",
          "type": "address"
        },
        {
          "indexed": true,
          "internalType": "address",
          "name": "operator",
          "type": "address"
        },
        {
          "indexed": false,
          "internalType": "bool",
          "name": "approved",
          "type": "bool"
        }
      ],
      "name": "ApprovalForAll",
      "type": "event"
    },
    {
      "anonymous": false,
      "inputs": [
        {
          "indexed": true,
          "internalType": "address",
          "name": "previousOwner",
          "type": "address"
        },
        {
          "indexed": true,
          "internalType": "address",
          "name": "newOwner",
          "type": "address"
        }
      ],
      "name": "OwnershipTransferred",
      "type": "event"
    },
    {
      "anonymous": false,
      "inputs": [
        {
          "indexed": true,
          "internalType": "address",
          "name": "from",
          "type": "address"
        },
        {
          "indexed": true,
          "internalType": "address",
          "name": "to",
          "type": "address"
        },
        {
          "indexed": true,
          "internalType": "uint256",
          "name": "tokenId",
          "type": "uint256"
        }
      ],
      "name": "Transfer",
      "type": "event"
    },
    {
      "inputs": [
        {
          "internalType": "address",
          "name": "to",
          "type": "address"
        },
        {
          "internalType": "uint256",
          "name": "tokenId",
          "type": "uint256"
        }
      ],
      "name": "approve",
      "outputs": [],
      "stateMutability": "nonpayable",
      "type": "function"
    },
    {
      "inputs": [
        {
          "internalType": "address",
          "name": "owner",
          "type": "address"
        }
      ],
      "name": "balanceOf",
      "outputs": [
        {
          "internalType": "uint256",
          "name": "",
          "type": "uint256"
        }
      ],
      "stateMutability": "view",
      "type": "function"
    },
    {
      "inputs": [
        {
          "internalType": "uint256",
          "name": "tokenId",
          "type": "uint256"
        }
      ],
      "name": "claimPolicy",
      "outputs": [],
      "stateMutability": "nonpayable",
      "type": "function"
    },
    {
      "inputs": [
        {
          "internalType": "uint256",
          "name": "tokenId",
          "type": "uint256"
        }
      ],
      "name": "getApproved",
      "outputs": [
        {
          "internalType": "address",
          "name": "",
          "type": "address"
        }
      ],
      "stateMutability": "view",
      "type": "function"
    },
    {
      "inputs": [
        {
          "internalType": "uint256",
          "name": "tokenId",
          "type": "uint256"
        }
      ],
      "name": "getPolicyDetails",
      "outputs": [
        {
          "components": [
            {
              "internalType": "uint256",
              "name": "policyId",
              "type": "uint256"
            },
            {
              "internalType": "string",
              "name": "farmerId",
              "type": "string"
            },
            {
              "internalType": "string",
              "name": "cropType",
              "type": "string"
            },
            {
              "internalType": "uint256",
              "name": "coverageAmount",
              "type": "uint256"
            },
            {
              "internalType": "uint256",
              "name": "premium",
              "type": "uint256"
            },
            {
              "internalType": "uint256",
              "name": "expirationDate",
              "type": "uint256"
            },
            {
              "internalType": "bool",
              "name": "claimed",
              "type": "bool"
            }
          ],
          "internalType": "struct CropInsuranceNFT.Policy",
          "name": "",
          "type": "tuple"
        }
      ],
      "stateMutability": "view",
      "type": "function"
    },
    {
      "inputs": [
        {
          "internalType": "address",
          "name": "owner",
          "type": "address"
        },
        {
          "internalType": "address",
          "name": "operator",
          "type": "address"
        }
      ],
      "name": "isApprovedForAll",
      "outputs": [
        {
          "internalType": "bool",
          "name": "",
          "type": "bool"
        }
      ],
      "stateMutability": "view",
      "type": "function"
    },
    {
      "inputs": [
        {
          "internalType": "string",
          "name": "farmerId",
          "type": "string"
        },
        {
          "internalType": "string",
          "name": "cropType",
          "type": "string"
        },
        {
          "internalType": "uint256",
          "name": "coverageAmount",
          "type": "uint256"
        },
        {
          "internalType": "uint256",
          "name": "premium",
          "type": "uint256"
        },
        {
          "internalType": "uint256",
          "name": "expirationDate",
          "type": "uint256"
        }
      ],
      "name": "mintPolicyNFT",
      "outputs": [
        {
          "internalType": "uint256",
          "name": "",
          "type": "uint256"
        }
      ],
      "stateMutability": "nonpayable",
      "type": "function"
    },
    {
      "inputs": [],
      "name": "name",
      "outputs": [
        {
          "internalType": "string",
          "name": "",
          "type": "string"
        }
      ],
      "stateMutability": "view",
      "type": "function"
    },
    {
      "inputs": [],
      "name": "nextTokenId",
      "outputs": [
        {
          "internalType": "uint256",
          "name": "",
          "type": "uint256"
        }
      ],
      "stateMutability": "view",
      "type": "function"
    },
    {
      "inputs": [],
      "name": "owner",
      "outputs": [
        {
          "internalType": "address",
          "name": "",
          "type": "address"
        }
      ],
      "stateMutability": "view",
      "type": "function"
    },
    {
      "inputs": [
        {
          "internalType": "uint256",
          "name": "tokenId",
          "type": "uint256"
        }
      ],
      "name": "ownerOf",
      "outputs": [
        {
          "internalType": "address",
          "name": "",
          "type": "address"
        }
      ],
      "stateMutability": "view",
      "type": "function"
    },
    {
      "inputs": [
        {
          "internalType": "uint256",
          "name": "",
          "type": "uint256"
        }
      ],
      "name": "policies",
      "outputs": [
        {
          "internalType": "uint256",
          "name": "policyId",
          "type": "uint256"
        },
        {
          "internalType": "string",
          "name": "farmerId",
          "type": "string"
        },
        {
          "internalType": "string",
          "name": "cropType",
          "type": "string"
        },
        {
          "internalType": "uint256",
          "name": "coverageAmount",
          "type": "uint256"
        },
        {
          "internalType": "uint256",
          "name": "premium",
          "type": "uint256"
        },
        {
          "internalType": "uint256",
          "name": "expirationDate",
          "type": "uint256"
        },
        {
          "internalType": "bool",
          "name": "claimed",
          "type": "bool"
        }
      ],
      "stateMutability": "view",
      "type": "function"
    },
    {
      "inputs": [],
      "name": "renounceOwnership",
      "outputs": [],
      "stateMutability": "nonpayable",
      "type": "function"
    },
    {
      "inputs": [
        {
          "internalType": "address",
          "name": "from",
          "type": "address"
        },
        {
          "internalType": "address",
          "name": "to",
          "type": "address"
        },
        {
          "internalType": "uint256",
          "name": "tokenId",
          "type": "uint256"
        }
      ],
      "name": "safeTransferFrom",
      "outputs": [],
      "stateMutability": "nonpayable",
      "type": "function"
    },
    {
      "inputs": [
        {
          "internalType": "address",
          "name": "from",
          "type": "address"
        },
        {
          "internalType": "address",
          "name": "to",
          "type": "address"
        },
        {
          "internalType": "uint256",
          "name": "tokenId",
          "type": "uint256"
        },
        {
          "internalType": "bytes",
          "name": "data",
          "type": "bytes"
        }
      ],
      "name": "safeTransferFrom",
      "outputs": [],
      "stateMutability": "nonpayable",
      "type": "function"
    },
    {
      "inputs": [
        {
          "internalType": "address",
          "name": "operator",
          "type": "address"
        },
        {
          "internalType": "bool",
          "name": "approved",
          "type": "bool"
        }
      ],
      "name": "setApprovalForAll",
      "outputs": [],
      "stateMutability": "nonpayable",
      "type": "function"
    },
    {
      "inputs": [
        {
          "internalType": "bytes4",
          "name": "interfaceId",
          "type": "bytes4"
        }
      ],
      "name": "supportsInterface",
      "outputs": [
        {
          "internalType": "bool",
          "name": "",
          "type": "bool"
        }
      ],
      "stateMutability": "view",
      "type": "function"
    },
    {
      "inputs": [],
      "name": "symbol",
      "outputs": [
        {
          "internalType": "string",
          "name": "",
          "type": "string"
        }
      ],
      "stateMutability": "view",
      "type": "function"
    },
    {
      "inputs": [
        {
          "internalType": "uint256",
          "name": "tokenId",
          "type": "uint256"
        }
      ],
      "name": "tokenURI",
      "outputs": [
        {
          "internalType": "string",
          "name": "",
          "type": "string"
        }
      ],
      "stateMutability": "view",
      "type": "function"
    },
    {
      "inputs": [
        {
          "internalType": "address",
          "name": "from",
          "type": "address"
        },
        {
          "internalType": "address",
          "name": "to",
          "type": "address"
        },
        {
          "internalType": "uint256",
          "name": "tokenId",
          "type": "uint256"
        }
      ],
      "name": "transferFrom",
      "outputs": [],
      "stateMutability": "nonpayable",
      "type": "function"
    },
    {
      "inputs": [
        {
          "internalType": "address",
          "name": "newOwner",
          "type": "address"
        }
      ],
      "name": "transferOwnership",
      "outputs": [],
      "stateMutability": "nonpayable",
      "type": "function"
    }
  ],
  "bytecode": "0x6080604052600160075534801561001557600080fd5b50336040518060400160405280601081526020017f43726f70496e737572616e63654e4654000000000000000000000000000000008152506040518060400160405280600481526020017f43524f500000000000000000000000000000000000000000000000000000000081525081600090816100929190610442565b5080600190816100a29190610442565b505050600073ffffffffffffffffffffffffffffffffffffffff168173ffffffffffffffffffffffffffffffffffffffff16036101175760006040517f1e4fbdf700000000000000000000000000000000000000000000000000000000815260040161010e9190610555565b60405180910390fd5b6101268161012c60201b60201c565b50610570565b6000600660009054906101000a900473ffffffffffffffffffffffffffffffffffffffff16905081600660006101000a81548173ffffffffffffffffffffffffffffffffffffffff021916908373ffffffffffffffffffffffffffffffffffffffff1602179055508173ffffffffffffffffffffffffffffffffffffffff168173ffffffffffffffffffffffffffffffffffffffff167f8be0079c531659141344cd1fd0a4f28419497f9722a3daafe3b4186f6b6457e060405160405180910390a35050565b600081519050919050565b7f4e487b7100000000000000000000000000000000000000000000000000000000600052604160045260246000fd5b7f4e487b7100000000000000000000000000000000000000000000000000000000600052602260045260246000fd5b6000600282049050600182168061027357607f821691505b6020821081036102865761028561022c565b5b50919050565b60008190508160005260206000209050919050565b60006020601f8301049050919050565b600082821b905092915050565b6000600883026102ee7fffffffffffffffffffffffffffffffffffffffffffffffffffffffffffffffff826102b1565b6102f886836102b1565b95508019841693508086168417925050509392505050565b6000819050919050565b6000819050919050565b600061033f61033a61033584610310565b61031a565b610310565b9050919050565b6000819050919050565b61035983610324565b61036d61036582610346565b8484546102be565b825550505050565b600090565b610382610375565b61038d818484610350565b505050565b5b818110156103b1576103a660008261037a565b600181019050610393565b5050565b601f8211156103f6576103c78161028c565b6103d0846102a1565b810160208510156103df578190505b6103f36103eb856102a1565b830182610392565b50505b505050565b600082821c905092915050565b6000610419600019846008026103fb565b1980831691505092915050565b60006104328383610408565b9150826002028217905092915050565b61044b826101f2565b67ffffffffffffffff811115610464576104636101fd565b5b61046e825461025b565b6104798282856103b5565b600060209050601f8311600181146104ac576000841561049a578287015190505b6104a48582610426565b86555061050c565b601f1984166104ba8661028c565b60005b828110156104e2578489015182556001820191506020850194506020810190506104bd565b868310156104ff57848901516104fb601f891682610408565b8355505b6001600288020188555050505b505050505050565b600073ffffffffffffffffffffffffffffffffffffffff82169050919050565b600061053f82610514565b9050919050565b61054f81610534565b82525050565b600060208201905061056a6000830184610546565b92915050565b612df38061057f6000396000f3fe608060405234801561001057600080fd5b50600436106101375760003560e01c8063715018a6116100b8578063b88d4fde1161007c578063b88d4fde1461033a578063c87b56dd14610356578063cc03801014610386578063d3e89483146103b6578063e985e9c5146103ec578063f2fde38b1461041c57610137565b8063715018a6146102ba57806375794a3c146102c45780638da5cb5b146102e257806395d89b4114610300578063a22cb4651461031e57610137565b80632aea118d116100ff5780632aea118d146101f2578063387afbe81461020e57806342842e0e1461023e5780636352211e1461025a57806370a082311461028a57610137565b806301ffc9a71461013c57806306fdde031461016c578063081812fc1461018a578063095ea7b3146101ba57806323b872dd146101d6575b600080fd5b61015660048036038101906101519190611f06565b610438565b6040516101639190611f4e565b60405180910390f35b61017461051a565b6040516101819190611ff9565b60405180910390f35b6101a4600480360381019061019f9190612051565b6105ac565b6040516101b191906120bf565b60405180910390f35b6101d460048036038101906101cf9190612106565b6105c8565b005b6101f060048036038101906101eb9190612146565b6105de565b005b61020c60048036038101906102079190612051565b6106e0565b005b610228600480360381019061022391906122ce565b610827565b6040516102359190612390565b60405180910390f35b61025860048036038101906102539190612146565b61091e565b005b610274600480360381019061026f9190612051565b61093e565b60405161028191906120bf565b60405180910390f35b6102a4600480360381019061029f91906123ab565b610950565b6040516102b19190612390565b60405180910390f35b6102c2610a0a565b005b6102cc610a1e565b6040516102d99190612390565b60405180910390f35b6102ea610a24565b6040516102f791906120bf565b60405180910390f35b610308610a4e565b6040516103159190611ff9565b60405180910390f35b61033860048036038101906103339190612404565b610ae0565b005b610354600480360381019061034f91906124e5565b610af6565b005b610370600480360381019061036b9190612051565b610b1b565b60405161037d9190611ff9565b60405180910390f35b6103a0600480360381019061039b9190612051565b610b84565b6040516103ad9190612673565b60405180910390f35b6103d060048036038101906103cb9190612051565b610d18565b6040516103e39796959493929190612695565b60405180910390f35b61040660048036038101906104019190612712565b610e77565b6040516104139190611f4e565b60405180910390f35b610436600480360381019061043191906123ab565b610f0b565b005b60007f80ac58cd000000000000000000000000000000000000000000000000000000007bffffffffffffffffffffffffffffffffffffffffffffffffffffffff1916827bffffffffffffffffffffffffffffffffffffffffffffffffffffffff1916148061050357507f5b5e139f000000000000000000000000000000000000000000000000000000007bffffffffffffffffffffffffffffffffffffffffffffffffffffffff1916827bffffffffffffffffffffffffffffffffffffffffffffffffffffffff1916145b80610513575061051282610f91565b5b9050919050565b60606000805461052990612781565b80601f016020809104026020016040519081016040528092919081815260200182805461055590612781565b80156105a25780601f10610577576101008083540402835291602001916105a2565b820191906000526020600020905b81548152906001019060200180831161058557829003601f168201915b5050505050905090565b60006105b782610ffb565b506105c182611083565b9050919050565b6105da82826105d56110c0565b6110c8565b5050565b600073ffffffffffffffffffffffffffffffffffffffff168273ffffffffffffffffffffffffffffffffffffffff16036106505760006040517f64a0ae9200000000000000000000000000000000000000000000000000000000815260040161064791906120bf565b60405180910390fd5b6000610664838361065f6110c0565b6110da565b90508373ffffffffffffffffffffffffffffffffffffffff168173ffffffffffffffffffffffffffffffffffffffff16146106da578382826040517f64283d7b0000000000000000000000000000000000000000000000000000000081526004016106d1939291906127b2565b60405180910390fd5b50505050565b3373ffffffffffffffffffffffffffffffffffffffff166107008261093e565b73ffffffffffffffffffffffffffffffffffffffff1614610756576040517f08c379a000000000000000000000000000000000000000000000000000000000815260040161074d90612835565b60405180910390fd5b60006008600083815260200190815260200160002090508060060160009054906101000a900460ff16156107bf576040517f08c379a00000000000000000000000000000000000000000000000000000000081526004016107b6906128a1565b60405180910390fd5b8060050154421115610806576040517f08c379a00000000000000000000000000000000000000000000000000000000081526004016107fd9061290d565b60405180910390fd5b60018160060160006101000a81548160ff0219169083151502179055505050565b600080600754905061083933826112f4565b6040518060e0016040528082815260200188815260200187815260200186815260200185815260200184815260200160001515815250600860008381526020019081526020016000206000820151816000015560208201518160010190816108a19190612ad9565b5060408201518160020190816108b79190612ad9565b50606082015181600301556080820151816004015560a0820151816005015560c08201518160060160006101000a81548160ff0219169083151502179055509050506007600081548092919061090c90612bda565b91905055508091505095945050505050565b61093983838360405180602001604052806000815250610af6565b505050565b600061094982610ffb565b9050919050565b60008073ffffffffffffffffffffffffffffffffffffffff168273ffffffffffffffffffffffffffffffffffffffff16036109c35760006040517f89c62b640000000000000000000000000000000000000000000000000000000081526004016109ba91906120bf565b60405180910390fd5b600360008373ffffffffffffffffffffffffffffffffffffffff1673ffffffffffffffffffffffffffffffffffffffff168152602001908152602001600020549050919050565b610a12611312565b610a1c6000611399565b565b60075481565b6000600660009054906101000a900473ffffffffffffffffffffffffffffffffffffffff16905090565b606060018054610a5d90612781565b80601f0160208091040260200160405190810160405280929190818152602001828054610a8990612781565b8015610ad65780601f10610aab57610100808354040283529160200191610ad6565b820191906000526020600020905b815481529060010190602001808311610ab957829003601f168201915b5050505050905090565b610af2610aeb6110c0565b838361145f565b5050565b610b018484846105de565b610b15610b0c6110c0565b858585856115ce565b50505050565b6060610b2682610ffb565b506000610b3161177f565b90506000815111610b515760405180602001604052806000815250610b7c565b80610b5b84611796565b604051602001610b6c929190612c5e565b6040516020818303038152906040525b915050919050565b610b8c611e5b565b600860008381526020019081526020016000206040518060e001604052908160008201548152602001600182018054610bc490612781565b80601f0160208091040260200160405190810160405280929190818152602001828054610bf090612781565b8015610c3d5780601f10610c1257610100808354040283529160200191610c3d565b820191906000526020600020905b815481529060010190602001808311610c2057829003601f168201915b50505050508152602001600282018054610c5690612781565b80601f0160208091040260200160405190810160405280929190818152602001828054610c8290612781565b8015610ccf5780601f10610ca457610100808354040283529160200191610ccf565b820191906000526020600020905b815481529060010190602001808311610cb257829003601f168201915b505050505081526020016003820154815260200160048201548152602001600582015481526020016006820160009054906101000a900460ff1615151515815250509050919050565b6008602052806000526040600020600091509050806000015490806001018054610d4190612781565b80601f0160208091040260200160405190810160405280929190818152602001828054610d6d90612781565b8015610dba5780601f10610d8f57610100808354040283529160200191610dba565b820191906000526020600020905b815481529060010190602001808311610d9d57829003601f168201915b505050505090806002018054610dcf90612781565b80601f0160208091040260200160405190810160405280929190818152602001828054610dfb90612781565b8015610e485780601f10610e1d57610100808354040283529160200191610e48565b820191906000526020600020905b815481529060010190602001808311610e2b57829003601f168201915b5050505050908060030154908060040154908060050154908060060160009054906101000a900460ff16905087565b6000600560008473ffffffffffffffffffffffffffffffffffffffff1673ffffffffffffffffffffffffffffffffffffffff16815260200190815260200160002060008373ffffffffffffffffffffffffffffffffffffffff1673ffffffffffffffffffffffffffffffffffffffff16815260200190815260200160002060009054906101000a900460ff16905092915050565b610f13611312565b600073ffffffffffffffffffffffffffffffffffffffff168173ffffffffffffffffffffffffffffffffffffffff1603610f855760006040517f1e4fbdf7000000000000000000000000000000000000000000000000000000008152600401610f7c91906120bf565b60405180910390fd5b610f8e81611399565b50565b60007f01ffc9a7000000000000000000000000000000000000000000000000000000007bffffffffffffffffffffffffffffffffffffffffffffffffffffffff1916827bffffffffffffffffffffffffffffffffffffffffffffffffffffffff1916149050919050565b60008061100783611864565b9050600073ffffffffffffffffffffffffffffffffffffffff168173ffffffffffffffffffffffffffffffffffffffff160361107a57826040517f7e2732890000000000000000000000000000000000000000000000000000000081526004016110719190612390565b60405180910390fd5b80915050919050565b60006004600083815260200190815260200160002060009054906101000a900473ffffffffffffffffffffffffffffffffffffffff169050919050565b600033905090565b6110d583838360016118a1565b505050565b6000806110e684611864565b9050600073ffffffffffffffffffffffffffffffffffffffff168373ffffffffffffffffffffffffffffffffffffffff161461112857611127818486611a66565b5b600073ffffffffffffffffffffffffffffffffffffffff168173ffffffffffffffffffffffffffffffffffffffff16146111b95761116a6000856000806118a1565b6001600360008373ffffffffffffffffffffffffffffffffffffffff1673ffffffffffffffffffffffffffffffffffffffff168152602001908152602001600020600082825403925050819055505b600073ffffffffffffffffffffffffffffffffffffffff168573ffffffffffffffffffffffffffffffffffffffff161461123c576001600360008773ffffffffffffffffffffffffffffffffffffffff1673ffffffffffffffffffffffffffffffffffffffff168152602001908152602001600020600082825401925050819055505b846002600086815260200190815260200160002060006101000a81548173ffffffffffffffffffffffffffffffffffffffff021916908373ffffffffffffffffffffffffffffffffffffffff160217905550838573ffffffffffffffffffffffffffffffffffffffff168273ffffffffffffffffffffffffffffffffffffffff167fddf252ad1be2c89b69c2b068fc378daa952ba7f163c4a11628f55a4df523b3ef60405160405180910390a4809150509392505050565b61130e828260405180602001604052806000815250611b2a565b5050565b61131a6110c0565b73ffffffffffffffffffffffffffffffffffffffff16611338610a24565b73ffffffffffffffffffffffffffffffffffffffff16146113975761135b6110c0565b6040517f118cdaa700000000000000000000000000000000000000000000000000000000815260040161138e91906120bf565b60405180910390fd5b565b6000600660009054906101000a900473ffffffffffffffffffffffffffffffffffffffff16905081600660006101000a81548173ffffffffffffffffffffffffffffffffffffffff021916908373ffffffffffffffffffffffffffffffffffffffff1602179055508173ffffffffffffffffffffffffffffffffffffffff168173ffffffffffffffffffffffffffffffffffffffff167f8be0079c531659141344cd1fd0a4f28419497f9722a3daafe3b4186f6b6457e060405160405180910390a35050565b600073ffffffffffffffffffffffffffffffffffffffff168273ffffffffffffffffffffffffffffffffffffffff16036114d057816040517f5b08ba180000000000000000000000000000000000000000000000000000000081526004016114c791906120bf565b60405180910390fd5b80600560008573ffffffffffffffffffffffffffffffffffffffff1673ffffffffffffffffffffffffffffffffffffffff16815260200190815260200160002060008473ffffffffffffffffffffffffffffffffffffffff1673ffffffffffffffffffffffffffffffffffffffff16815260200190815260200160002060006101000a81548160ff0219169083151502179055508173ffffffffffffffffffffffffffffffffffffffff168373ffffffffffffffffffffffffffffffffffffffff167f17307eab39ab6107e8899845ad3d59bd9653f200f220920489ca2b5937696c31836040516115c19190611f4e565b60405180910390a3505050565b60008373ffffffffffffffffffffffffffffffffffffffff163b1115611778578273ffffffffffffffffffffffffffffffffffffffff1663150b7a02868685856040518563ffffffff1660e01b815260040161162d9493929190612cd7565b6020604051808303816000875af192505050801561166957506040513d601f19601f820116820180604052508101906116669190612d38565b60015b6116ed573d8060008114611699576040519150601f19603f3d011682016040523d82523d6000602084013e61169e565b606091505b5060008151036116e557836040517f64a0ae920000000000000000000000000000000000000000000000000000000081526004016116dc91906120bf565b60405180910390fd5b805160208201fd5b63150b7a0260e01b7bffffffffffffffffffffffffffffffffffffffffffffffffffffffff1916817bffffffffffffffffffffffffffffffffffffffffffffffffffffffff19161461177657836040517f64a0ae9200000000000000000000000000000000000000000000000000000000815260040161176d91906120bf565b60405180910390fd5b505b5050505050565b606060405180602001604052806000815250905090565b6060600060016117a584611b4e565b01905060008167ffffffffffffffff8111156117c4576117c36121a3565b5b6040519080825280601f01601f1916602001820160405280156117f65781602001600182028036833780820191505090505b509050600082602083010190505b600115611859578080600190039150507f3031323334353637383961626364656600000000000000000000000000000000600a86061a8153600a858161184d5761184c612d65565b5b04945060008503611804575b819350505050919050565b60006002600083815260200190815260200160002060009054906101000a900473ffffffffffffffffffffffffffffffffffffffff169050919050565b80806118da5750600073ffffffffffffffffffffffffffffffffffffffff168273ffffffffffffffffffffffffffffffffffffffff1614155b15611a0e5760006118ea84610ffb565b9050600073ffffffffffffffffffffffffffffffffffffffff168373ffffffffffffffffffffffffffffffffffffffff161415801561195557508273ffffffffffffffffffffffffffffffffffffffff168173ffffffffffffffffffffffffffffffffffffffff1614155b801561196857506119668184610e77565b155b156119aa57826040517fa9fbf51f0000000000000000000000000000000000000000000000000000000081526004016119a191906120bf565b60405180910390fd5b8115611a0c57838573ffffffffffffffffffffffffffffffffffffffff168273ffffffffffffffffffffffffffffffffffffffff167f8c5be1e5ebec7d5bd14f71427d1e84f3dd0314c0f7b2291e5b200ac8c7c3b92560405160405180910390a45b505b836004600085815260200190815260200160002060006101000a81548173ffffffffffffffffffffffffffffffffffffffff021916908373ffffffffffffffffffffffffffffffffffffffff16021790555050505050565b611a71838383611ca1565b611b2557600073ffffffffffffffffffffffffffffffffffffffff168373ffffffffffffffffffffffffffffffffffffffff1603611ae657806040517f7e273289000000000000000000000000000000000000000000000000000000008152600401611add9190612390565b60405180910390fd5b81816040517f177e802f000000000000000000000000000000000000000000000000000000008152600401611b1c929190612d94565b60405180910390fd5b505050565b611b348383611d62565b611b49611b3f6110c0565b60008585856115ce565b505050565b600080600090507a184f03e93ff9f4daa797ed6e38ed64bf6a1f0100000000000000008310611bac577a184f03e93ff9f4daa797ed6e38ed64bf6a1f0100000000000000008381611ba257611ba1612d65565b5b0492506040810190505b6d04ee2d6d415b85acef81000000008310611be9576d04ee2d6d415b85acef81000000008381611bdf57611bde612d65565b5b0492506020810190505b662386f26fc100008310611c1857662386f26fc100008381611c0e57611c0d612d65565b5b0492506010810190505b6305f5e1008310611c41576305f5e1008381611c3757611c36612d65565b5b0492506008810190505b6127108310611c66576127108381611c5c57611c5b612d65565b5b0492506004810190505b60648310611c895760648381611c7f57611c7e612d65565b5b0492506002810190505b600a8310611c98576001810190505b80915050919050565b60008073ffffffffffffffffffffffffffffffffffffffff168373ffffffffffffffffffffffffffffffffffffffff1614158015611d5957508273ffffffffffffffffffffffffffffffffffffffff168473ffffffffffffffffffffffffffffffffffffffff161480611d1a5750611d198484610e77565b5b80611d5857508273ffffffffffffffffffffffffffffffffffffffff16611d4083611083565b73ffffffffffffffffffffffffffffffffffffffff16145b5b90509392505050565b600073ffffffffffffffffffffffffffffffffffffffff168273ffffffffffffffffffffffffffffffffffffffff1603611dd45760006040517f64a0ae92000000000000000000000000000000000000000000000000000000008152600401611dcb91906120bf565b60405180910390fd5b6000611de2838360006110da565b9050600073ffffffffffffffffffffffffffffffffffffffff168173ffffffffffffffffffffffffffffffffffffffff1614611e565760006040517f73c6ac6e000000000000000000000000000000000000000000000000000000008152600401611e4d91906120bf565b60405180910390fd5b505050565b6040518060e001604052806000815260200160608152602001606081526020016000815260200160008152602001600081526020016000151581525090565b6000604051905090565b600080fd5b600080fd5b60007fffffffff0000000000000000000000000000000000000000000000000000000082169050919050565b611ee381611eae565b8114611eee57600080fd5b50565b600081359050611f0081611eda565b92915050565b600060208284031215611f1c57611f1b611ea4565b5b6000611f2a84828501611ef1565b91505092915050565b60008115159050919050565b611f4881611f33565b82525050565b6000602082019050611f636000830184611f3f565b92915050565b600081519050919050565b600082825260208201905092915050565b60005b83811015611fa3578082015181840152602081019050611f88565b60008484015250505050565b6000601f19601f8301169050919050565b6000611fcb82611f69565b611fd58185611f74565b9350611fe5818560208601611f85565b611fee81611faf565b840191505092915050565b600060208201905081810360008301526120138184611fc0565b905092915050565b6000819050919050565b61202e8161201b565b811461203957600080fd5b50565b60008135905061204b81612025565b92915050565b60006020828403121561206757612066611ea4565b5b60006120758482850161203c565b91505092915050565b600073ffffffffffffffffffffffffffffffffffffffff82169050919050565b60006120a98261207e565b9050919050565b6120b98161209e565b82525050565b60006020820190506120d460008301846120b0565b92915050565b6120e38161209e565b81146120ee57600080fd5b50565b600081359050612100816120da565b92915050565b6000806040838503121561211d5761211c611ea4565b5b600061212b858286016120f1565b925050602061213c8582860161203c565b9150509250929050565b60008060006060848603121561215f5761215e611ea4565b5b600061216d868287016120f1565b935050602061217e868287016120f1565b925050604061218f8682870161203c565b9150509250925092565b600080fd5b600080fd5b7f4e487b7100000000000000000000000000000000000000000000000000000000600052604160045260246000fd5b6121db82611faf565b810181811067ffffffffffffffff821117156121fa576121f96121a3565b5b80604052505050565b600061220d611e9a565b905061221982826121d2565b919050565b600067ffffffffffffffff821115612239576122386121a3565b5b61224282611faf565b9050602081019050919050565b82818337600083830152505050565b600061227161226c8461221e565b612203565b90508281526020810184848401111561228d5761228c61219e565b5b61229884828561224f565b509392505050565b600082601f8301126122b5576122b4612199565b5b81356122c584826020860161225e565b91505092915050565b600080600080600060a086880312156122ea576122e9611ea4565b5b600086013567ffffffffffffffff81111561230857612307611ea9565b5b612314888289016122a0565b955050602086013567ffffffffffffffff81111561233557612334611ea9565b5b612341888289016122a0565b94505060406123528882890161203c565b93505060606123638882890161203c565b92505060806123748882890161203c565b9150509295509295909350565b61238a8161201b565b82525050565b60006020820190506123a56000830184612381565b92915050565b6000602082840312156123c1576123c0611ea4565b5b60006123cf848285016120f1565b91505092915050565b6123e181611f33565b81146123ec57600080fd5b50565b6000813590506123fe816123d8565b92915050565b6000806040838503121561241b5761241a611ea4565b5b6000612429858286016120f1565b925050602061243a858286016123ef565b9150509250929050565b600067ffffffffffffffff82111561245f5761245e6121a3565b5b61246882611faf565b9050602081019050919050565b600061248861248384612444565b612203565b9050828152602081018484840111156124a4576124a361219e565b5b6124af84828561224f565b509392505050565b600082601f8301126124cc576124cb612199565b5b81356124dc848260208601612475565b91505092915050565b600080600080608085870312156124ff576124fe611ea4565b5b600061250d878288016120f1565b945050602061251e878288016120f1565b935050604061252f8782880161203c565b925050606085013567ffffffffffffffff8111156125505761254f611ea9565b5b61255c878288016124b7565b91505092959194509250565b6125718161201b565b82525050565b600082825260208201905092915050565b600061259382611f69565b61259d8185612577565b93506125ad818560208601611f85565b6125b681611faf565b840191505092915050565b6125ca81611f33565b82525050565b600060e0830160008301516125e86000860182612568565b50602083015184820360208601526126008282612588565b9150506040830151848203604086015261261a8282612588565b915050606083015161262f6060860182612568565b5060808301516126426080860182612568565b5060a083015161265560a0860182612568565b5060c083015161266860c08601826125c1565b508091505092915050565b6000602082019050818103600083015261268d81846125d0565b905092915050565b600060e0820190506126aa600083018a612381565b81810360208301526126bc8189611fc0565b905081810360408301526126d08188611fc0565b90506126df6060830187612381565b6126ec6080830186612381565b6126f960a0830185612381565b61270660c0830184611f3f565b98975050505050505050565b6000806040838503121561272957612728611ea4565b5b6000612737858286016120f1565b9250506020612748858286016120f1565b9150509250929050565b7f4e487b7100000000000000000000000000000000000000000000000000000000600052602260045260246000fd5b6000600282049050600182168061279957607f821691505b6020821081036127ac576127ab612752565b5b50919050565b60006060820190506127c760008301866120b0565b6127d46020830185612381565b6127e160408301846120b0565b949350505050565b7f4e6f7420706f6c696379206f776e657200000000000000000000000000000000600082015250565b600061281f601083611f74565b915061282a826127e9565b602082019050919050565b6000602082019050818103600083015261284e81612812565b9050919050565b7f416c726561647920636c61696d65640000000000000000000000000000000000600082015250565b600061288b600f83611f74565b915061289682612855565b602082019050919050565b600060208201905081810360008301526128ba8161287e565b9050919050565b7f506f6c6963792065787069726564000000000000000000000000000000000000600082015250565b60006128f7600e83611f74565b9150612902826128c1565b602082019050919050565b60006020820190508181036000830152612926816128ea565b9050919050565b60008190508160005260206000209050919050565b60006020601f8301049050919050565b600082821b905092915050565b60006008830261298f7fffffffffffffffffffffffffffffffffffffffffffffffffffffffffffffffff82612952565b6129998683612952565b95508019841693508086168417925050509392505050565b6000819050919050565b60006129d66129d16129cc8461201b565b6129b1565b61201b565b9050919050565b6000819050919050565b6129f0836129bb565b612a046129fc826129dd565b84845461295f565b825550505050565b600090565b612a19612a0c565b612a248184846129e7565b505050565b5b81811015612a4857612a3d600082612a11565b600181019050612a2a565b5050565b601f821115612a8d57612a5e8161292d565b612a6784612942565b81016020851015612a76578190505b612a8a612a8285612942565b830182612a29565b50505b505050565b600082821c905092915050565b6000612ab060001984600802612a92565b1980831691505092915050565b6000612ac98383612a9f565b9150826002028217905092915050565b612ae282611f69565b67ffffffffffffffff811115612afb57612afa6121a3565b5b612b058254612781565b612b10828285612a4c565b600060209050601f831160018114612b435760008415612b31578287015190505b612b3b8582612abd565b865550612ba3565b601f198416612b518661292d565b60005b82811015612b7957848901518255600182019150602085019450602081019050612b54565b86831015612b965784890151612b92601f891682612a9f565b8355505b6001600288020188555050505b505050505050565b7f4e487b7100000000000000000000000000000000000000000000000000000000600052601160045260246000fd5b6000612be58261201b565b91507fffffffffffffffffffffffffffffffffffffffffffffffffffffffffffffffff8203612c1757612c16612bab565b5b600182019050919050565b600081905092915050565b6000612c3882611f69565b612c428185612c22565b9350612c52818560208601611f85565b80840191505092915050565b6000612c6a8285612c2d565b9150612c768284612c2d565b91508190509392505050565b600081519050919050565b600082825260208201905092915050565b6000612ca982612c82565b612cb38185612c8d565b9350612cc3818560208601611f85565b612ccc81611faf565b840191505092915050565b6000608082019050612cec60008301876120b0565b612cf960208301866120b0565b612d066040830185612381565b8181036060830152612d188184612c9e565b905095945050505050565b600081519050612d3281611eda565b92915050565b600060208284031215612d4e57612d4d611ea4565b5b6000612d5c84828501612d23565b91505092915050565b7f4e487b7100000000000000000000000000000000000000000000000000000000600052601260045260246000fd5b6000604082019050612da960008301856120b0565b612db66020830184612381565b939250505056fea264697066735822122093848ff6a5bc1886a9575fc233d6073ae1b8727894d89495df842e202484861a64736f6c634300081c0033",
  "linkReferences": {},
  "deployedLinkReferences": {}
}